{
  "_format": "hh-sol-artifact-1",
  "contractName": "Raffle",
  "sourceName": "contracts/Raffle.sol",
  "abi": [
    {
      "inputs": [
        {
          "internalType": "address",
          "name": "vrfCoordinatorV2",
          "type": "address"
        },
        {
          "internalType": "uint256",
          "name": "entranceFee",
          "type": "uint256"
        },
        {
          "internalType": "bytes32",
          "name": "gasLane",
          "type": "bytes32"
        },
        {
          "internalType": "uint64",
          "name": "subscriptionId",
          "type": "uint64"
        },
        {
          "internalType": "uint32",
          "name": "callbackGasLimit",
          "type": "uint32"
        },
        {
          "internalType": "uint256",
          "name": "interval",
          "type": "uint256"
        }
      ],
      "stateMutability": "nonpayable",
      "type": "constructor"
    },
    {
      "inputs": [
        {
          "internalType": "address",
          "name": "have",
          "type": "address"
        },
        {
          "internalType": "address",
          "name": "want",
          "type": "address"
        }
      ],
      "name": "OnlyCoordinatorCanFulfill",
      "type": "error"
    },
    {
      "inputs": [],
      "name": "Raffle_NotEnoughETHAmount",
      "type": "error"
    },
    {
      "inputs": [],
      "name": "Raffle_UpKeepNotNeeded",
      "type": "error"
    },
    {
      "inputs": [],
      "name": "Raffle__NotOpen",
      "type": "error"
    },
    {
      "inputs": [],
      "name": "Raffle__failed",
      "type": "error"
    },
    {
      "anonymous": false,
      "inputs": [
        {
          "indexed": true,
          "internalType": "address",
          "name": "player",
          "type": "address"
        }
      ],
      "name": "RaffleEnter",
      "type": "event"
    },
    {
      "anonymous": false,
      "inputs": [
        {
          "indexed": true,
          "internalType": "uint256",
          "name": "requestId",
          "type": "uint256"
        }
      ],
      "name": "RequestedRaffleWinner",
      "type": "event"
    },
    {
      "anonymous": false,
      "inputs": [
        {
          "indexed": true,
          "internalType": "address",
          "name": "winner",
          "type": "address"
        }
      ],
      "name": "WinnerPicked",
      "type": "event"
    },
    {
      "inputs": [
        {
          "internalType": "bytes",
          "name": "",
          "type": "bytes"
        }
      ],
      "name": "checkUpkeep",
      "outputs": [
        {
          "internalType": "bool",
          "name": "upKeepNeeded",
          "type": "bool"
        },
        {
          "internalType": "bytes",
          "name": "",
          "type": "bytes"
        }
      ],
      "stateMutability": "view",
      "type": "function"
    },
    {
      "inputs": [],
      "name": "enterRaffle",
      "outputs": [],
      "stateMutability": "payable",
      "type": "function"
    },
    {
      "inputs": [],
      "name": "getEntranceFee",
      "outputs": [
        {
          "internalType": "uint256",
          "name": "",
          "type": "uint256"
        }
      ],
      "stateMutability": "view",
      "type": "function"
    },
    {
      "inputs": [],
      "name": "getInterval",
      "outputs": [
        {
          "internalType": "uint256",
          "name": "",
          "type": "uint256"
        }
      ],
      "stateMutability": "view",
      "type": "function"
    },
    {
      "inputs": [],
      "name": "getNumWords",
      "outputs": [
        {
          "internalType": "uint256",
          "name": "",
          "type": "uint256"
        }
      ],
      "stateMutability": "pure",
      "type": "function"
    },
    {
      "inputs": [],
      "name": "getNumberOfPlayers",
      "outputs": [
        {
          "internalType": "uint256",
          "name": "",
          "type": "uint256"
        }
      ],
      "stateMutability": "view",
      "type": "function"
    },
    {
      "inputs": [
        {
          "internalType": "uint256",
          "name": "index",
          "type": "uint256"
        }
      ],
      "name": "getPlayer",
      "outputs": [
        {
          "internalType": "address",
          "name": "",
          "type": "address"
        }
      ],
      "stateMutability": "view",
      "type": "function"
    },
    {
      "inputs": [],
      "name": "getRaffleState",
      "outputs": [
        {
          "internalType": "enum Raffle.RaffleState",
          "name": "",
          "type": "uint8"
        }
      ],
      "stateMutability": "view",
      "type": "function"
    },
    {
      "inputs": [],
      "name": "getRecentWinner",
      "outputs": [
        {
          "internalType": "address",
          "name": "",
          "type": "address"
        }
      ],
      "stateMutability": "view",
      "type": "function"
    },
    {
      "inputs": [],
      "name": "getRequestConfirmations",
      "outputs": [
        {
          "internalType": "uint256",
          "name": "",
          "type": "uint256"
        }
      ],
      "stateMutability": "pure",
      "type": "function"
    },
    {
      "inputs": [],
      "name": "getlatestTimeStamp",
      "outputs": [
        {
          "internalType": "uint256",
          "name": "",
          "type": "uint256"
        }
      ],
      "stateMutability": "view",
      "type": "function"
    },
    {
      "inputs": [
        {
          "internalType": "bytes",
          "name": "",
          "type": "bytes"
        }
      ],
      "name": "performUpkeep",
      "outputs": [],
      "stateMutability": "nonpayable",
      "type": "function"
    },
    {
      "inputs": [
        {
          "internalType": "uint256",
          "name": "requestId",
          "type": "uint256"
        },
        {
          "internalType": "uint256[]",
          "name": "randomWords",
          "type": "uint256[]"
        }
      ],
      "name": "rawFulfillRandomWords",
      "outputs": [],
      "stateMutability": "nonpayable",
      "type": "function"
    }
  ],
  "bytecode": "0x6101606040523480156200001257600080fd5b5060405162001ea538038062001ea58339818101604052810190620000389190620002ac565b858073ffffffffffffffffffffffffffffffffffffffff1660808173ffffffffffffffffffffffffffffffffffffffff1660601b81525050506200008d67259f733dd3fc92ad60c01b6200023660201b60201c565b620000a96787dfc740776bdcb560c01b6200023660201b60201c565b8460a08181525050620000cd674689fb72d944ee2c60c01b6200023660201b60201c565b8573ffffffffffffffffffffffffffffffffffffffff1660c08173ffffffffffffffffffffffffffffffffffffffff1660601b8152505062000120675488874f655952d460c01b6200023660201b60201c565b8360e08181525050620001446753f3c284a3a0cc7260c01b6200023660201b60201c565b8267ffffffffffffffff166101008167ffffffffffffffff1660c01b8152505062000180670e28e82e0f4a667360c01b6200023660201b60201c565b8163ffffffff166101208163ffffffff1660e01b81525050620001b467a6a3b018a4d9813060c01b6200023660201b60201c565b6000600360006101000a81548160ff02191690836001811115620001dd57620001dc620003b4565b5b0217905550620001fe676090d1da5009000660c01b6200023660201b60201c565b806101408181525050620002236705fc938256fedf5360c01b6200023660201b60201c565b426002819055505050505050506200046a565b50565b6000815190506200024a81620003e8565b92915050565b600081519050620002618162000402565b92915050565b60008151905062000278816200041c565b92915050565b6000815190506200028f8162000436565b92915050565b600081519050620002a68162000450565b92915050565b60008060008060008060c08789031215620002cc57620002cb620003e3565b5b6000620002dc89828a0162000239565b9650506020620002ef89828a0162000267565b95505060406200030289828a0162000250565b94505060606200031589828a0162000295565b93505060806200032889828a016200027e565b92505060a06200033b89828a0162000267565b9150509295509295509295565b6000620003558262000366565b9050919050565b6000819050919050565b600073ffffffffffffffffffffffffffffffffffffffff82169050919050565b6000819050919050565b600063ffffffff82169050919050565b600067ffffffffffffffff82169050919050565b7f4e487b7100000000000000000000000000000000000000000000000000000000600052602160045260246000fd5b600080fd5b620003f38162000348565b8114620003ff57600080fd5b50565b6200040d816200035c565b81146200041957600080fd5b50565b620004278162000386565b81146200043357600080fd5b50565b620004418162000390565b81146200044d57600080fd5b50565b6200045b81620003a0565b81146200046757600080fd5b50565b60805160601c60a05160c05160601c60e0516101005160c01c6101205160e01c610140516119bf620004e660003960008181610b780152610c85015260006108e8015260006108c5015260006108a40152600061086801526000818161033601526104ab0152600081816103af015261040301526119bf6000f3fe6080604052600436106100c25760003560e01c806353a2c19a1161007f57806391ad27b41161005957806391ad27b414610238578063a357b14614610263578063e55ae4e81461028e578063fd6673f5146102cb576100c2565b806353a2c19a146101a45780635f1b0fd8146101cf5780636e04ff0d146101fa576100c2565b806309bc33a7146100c7578063115cbaf5146100f25780631fe543e31461011d5780632cfcc539146101465780634585e33b14610150578063473f1ddc14610179575b600080fd5b3480156100d357600080fd5b506100dc6102f6565b6040516100e99190611601565b60405180910390f35b3480156100fe57600080fd5b5061010761035a565b60405161011491906115e6565b60405180910390f35b34801561012957600080fd5b50610144600480360381019061013f91906113da565b6103ad565b005b61014e61046d565b005b34801561015c57600080fd5b5061017760048036038101906101729190611337565b610708565b005b34801561018557600080fd5b5061018e6109d7565b60405161019b919061151f565b60405180910390f35b3480156101b057600080fd5b506101b9610a3d565b6040516101c69190611601565b60405180910390f35b3480156101db57600080fd5b506101e4610a88565b6040516101f19190611601565b60405180910390f35b34801561020657600080fd5b50610221600480360381019061021c9190611337565b610ad1565b60405161022f929190611563565b60405180910390f35b34801561024457600080fd5b5061024d610c45565b60405161025a9190611601565b60405180910390f35b34801561026f57600080fd5b50610278610ca9565b6040516102859190611601565b60405180910390f35b34801561029a57600080fd5b506102b560048036038101906102b09190611380565b610cef565b6040516102c2919061151f565b60405180910390f35b3480156102d757600080fd5b506102e0610d73565b6040516102ed9190611601565b60405180910390f35b600061030c67b9e5f1fcde0563a860c01b610dbc565b610320677d816fb0b0ead9fa60c01b610dbc565b61033467fbb3d24c0ba5b92560c01b610dbc565b7f0000000000000000000000000000000000000000000000000000000000000000905090565b6000610370672f085506206da1c260c01b610dbc565b610384678c569d0219f29da960c01b610dbc565b61039867d5c411d6109662fe60c01b610dbc565b600360009054906101000a900460ff16905090565b7f000000000000000000000000000000000000000000000000000000000000000073ffffffffffffffffffffffffffffffffffffffff163373ffffffffffffffffffffffffffffffffffffffff161461045f57337f00000000000000000000000000000000000000000000000000000000000000006040517f1cf993f400000000000000000000000000000000000000000000000000000000815260040161045692919061153a565b60405180910390fd5b6104698282610dbf565b5050565b61048167f61aa48ef88bc48360c01b610dbc565b6104956718f6e780f7c6df2460c01b610dbc565b6104a9678b8967e5f3204f9b60c01b610dbc565b7f000000000000000000000000000000000000000000000000000000000000000034101561052b576104e567e531016cbecf8e0a60c01b610dbc565b6104f967aeb7b737d861480160c01b610dbc565b6040517f2edc6cd300000000000000000000000000000000000000000000000000000000815260040160405180910390fd5b61053f673c37cc1c0673703d60c01b610dbc565b61055367af431d62b1e29bde60c01b610dbc565b61056767374e8d1a330aef9c60c01b610dbc565b6000600181111561057b5761057a6118a4565b5b600360009054906101000a900460ff16600181111561059d5761059c6118a4565b5b146105fc576105b667b03de1890f9665a960c01b610dbc565b6105ca67e8c00f515170980060c01b610dbc565b6040517f1425571c00000000000000000000000000000000000000000000000000000000815260040160405180910390fd5b61061067618617834176524c60c01b610dbc565b61062467293e102b52659d5860c01b610dbc565b61063867ada75517ab3bf79f60c01b610dbc565b6000339080600181540180825580915050600190039060005260206000200160009091909190916101000a81548173ffffffffffffffffffffffffffffffffffffffff021916908373ffffffffffffffffffffffffffffffffffffffff1602179055506106af67217de0d4309d1b8360c01b610dbc565b6106c367db3e345ddc04c5a860c01b610dbc565b3373ffffffffffffffffffffffffffffffffffffffff167f0805e1d667bddb8a95f0f09880cf94f403fb596ce79928d9f29b74203ba284d460405160405180910390a2565b61071c670dadbda079a32b1260c01b610dbc565b61073067e989b01b29a03d0060c01b610dbc565b610744678e4057af1811645a60c01b610dbc565b600061075e60405180602001604052806000815250610ad1565b509050610775672d8310a6ac4b4db460c01b610dbc565b61078967ceebe7f15089ae4b60c01b610dbc565b80156107e9576107a3678ac2cfd4da6e357860c01b610dbc565b6107b767487aff2d865611ef60c01b610dbc565b6040517f4876790b00000000000000000000000000000000000000000000000000000000815260040160405180910390fd5b6107fd6779b7858f73a9badb60c01b610dbc565b61081167c85aa9dbbc60b54c60c01b610dbc565b6001600360006101000a81548160ff02191690836001811115610837576108366118a4565b5b021790555061085067bb7e937ac9b887a560c01b610dbc565b61086467af7bf6841b653d3360c01b610dbc565b60007f000000000000000000000000000000000000000000000000000000000000000073ffffffffffffffffffffffffffffffffffffffff16635d3b1d307f00000000000000000000000000000000000000000000000000000000000000007f000000000000000000000000000000000000000000000000000000000000000060037f000000000000000000000000000000000000000000000000000000000000000060016040518663ffffffff1660e01b8152600401610929959493929190611593565b602060405180830381600087803b15801561094357600080fd5b505af1158015610957573d6000803e3d6000fd5b505050506040513d601f19601f8201168201806040525081019061097b91906113ad565b905061099167cd9feb8ca001524660c01b610dbc565b6109a5676ff180e3bbba985160c01b610dbc565b807fcd6e45c8998311cab7e9d4385596cac867e20a0587194b954fa3a731c93ce78b60405160405180910390a2505050565b60006109ed67ba7baf879bef310660c01b610dbc565b610a01672a8f9dd53f77dec660c01b610dbc565b610a1567d25ec33c324ad7bb60c01b610dbc565b600160009054906101000a900473ffffffffffffffffffffffffffffffffffffffff16905090565b6000610a5367194eef2cafda64ce60c01b610dbc565b610a6767c29018f14c2934e860c01b610dbc565b610a7b672e57a019274c955760c01b610dbc565b600163ffffffff16905090565b6000610a9e6783ef63044bb6d58d60c01b610dbc565b610ab2671a650e713004a51960c01b610dbc565b610ac6670afdbc969379aa1960c01b610dbc565b600361ffff16905090565b60006060610ae9671e38f61c8bbd3ba960c01b610dbc565b610afd67fa90fffcf6b3653c60c01b610dbc565b610b11671b71f95fda5c520b60c01b610dbc565b6000600360009054906101000a900460ff166001811115610b3557610b346118a4565b5b60006001811115610b4957610b486118a4565b5b149050610b60675e378bba3be6572460c01b610dbc565b610b74675e1db029313a732c60c01b610dbc565b60007f000000000000000000000000000000000000000000000000000000000000000060025442610ba591906116c5565b119050610bbb66dd9fc70e3d9b0760c01b610dbc565b610bcf677437d77c3c780cef60c01b610dbc565b600080600080549050119050610bef67935b44191ae7472260c01b610dbc565b610c0367d44823532f6baa0360c01b610dbc565b60008047119050610c1e67f927a879f5495ca360c01b610dbc565b838015610c285750825b8015610c315750815b8015610c3a5750805b955050505050915091565b6000610c5b6777d7884c8753d2de60c01b610dbc565b610c6f67b2941c7df8ed000960c01b610dbc565b610c8367525a295d6aad932660c01b610dbc565b7f0000000000000000000000000000000000000000000000000000000000000000905090565b6000610cbf67e5c889d968d3de1f60c01b610dbc565b610cd367502ea1d738c2622e60c01b610dbc565b610ce76736f1fe893681b8d560c01b610dbc565b600254905090565b6000610d056790acae2a4d1a5a9c60c01b610dbc565b610d196725798f3c8fa2eac460c01b610dbc565b610d2d67808ce6cca5259dfc60c01b610dbc565b60008281548110610d4157610d406118d3565b5b9060005260206000200160009054906101000a900473ffffffffffffffffffffffffffffffffffffffff169050919050565b6000610d896722ad28d3bafa00a960c01b610dbc565b610d9d674cad75831403138e60c01b610dbc565b610db16759b2c80d4f353ae960c01b610dbc565b600080549050905090565b50565b610dd367e109c32fd5fae32760c01b610dbc565b610de7675718228d4362257660c01b610dbc565b610dfb678536c919f825175760c01b610dbc565b6000808054905082600081518110610e1657610e156118d3565b5b6020026020010151610e289190611815565b9050610e3e67b6363b3da325d0f460c01b610dbc565b610e5267af9cbbb3af0bebc260c01b610dbc565b6000808281548110610e6757610e666118d3565b5b9060005260206000200160009054906101000a900473ffffffffffffffffffffffffffffffffffffffff169050610ea8670d1eb401869f7b5760c01b610dbc565b80600160006101000a81548173ffffffffffffffffffffffffffffffffffffffff021916908373ffffffffffffffffffffffffffffffffffffffff160217905550610efd6703e17cf466eab7db60c01b610dbc565b6000600360006101000a81548160ff02191690836001811115610f2357610f226118a4565b5b0217905550610f3c6780e5507380d34c0160c01b610dbc565b600067ffffffffffffffff811115610f5757610f56611902565b5b604051908082528060200260200182016040528015610f855781602001602082028036833780820191505090505b5060009080519060200190610f9b929190611158565b50610fb067d7471f7effa6327060c01b610dbc565b42600281905550610fcb6794b61027c665e5cc60c01b610dbc565b610fdf67d9b64840268aa4ae60c01b610dbc565b60008173ffffffffffffffffffffffffffffffffffffffff16476040516110059061150a565b60006040518083038185875af1925050503d8060008114611042576040519150601f19603f3d011682016040523d82523d6000602084013e611047565b606091505b5050905061105f6784b61a6654b3dd5260c01b610dbc565b611073672d380252db45fc7460c01b610dbc565b806110d25761108c67bbbbd0b15b50c60f60c01b610dbc565b6110a067f63f4d6c536ff39d60c01b610dbc565b6040517f989c15c000000000000000000000000000000000000000000000000000000000815260040160405180910390fd5b6110e667701c12f44d0a582060c01b610dbc565b6110fa678716d9887ddbac7a60c01b610dbc565b61110e67c67784700f43ce6260c01b610dbc565b8173ffffffffffffffffffffffffffffffffffffffff167f5b690ec4a06fe979403046eaeea5b3ce38524683c3001f662c8b5a829632f7df60405160405180910390a25050505050565b8280548282559060005260206000209081019282156111d1579160200282015b828111156111d05782518260006101000a81548173ffffffffffffffffffffffffffffffffffffffff021916908373ffffffffffffffffffffffffffffffffffffffff16021790555091602001919060010190611178565b5b5090506111de91906111e2565b5090565b5b808211156111fb5760008160009055506001016111e3565b5090565b600061121261120d84611641565b61161c565b9050808382526020820190508285602086028201111561123557611234611936565b5b60005b85811015611265578161124b888261130d565b845260208401935060208301925050600181019050611238565b5050509392505050565b600061128261127d8461166d565b61161c565b90508281526020810184848401111561129e5761129d61193b565b5b6112a98482856117a2565b509392505050565b600082601f8301126112c6576112c5611931565b5b81356112d68482602086016111ff565b91505092915050565b600082601f8301126112f4576112f3611931565b5b813561130484826020860161126f565b91505092915050565b60008135905061131c81611972565b92915050565b60008151905061133181611972565b92915050565b60006020828403121561134d5761134c611945565b5b600082013567ffffffffffffffff81111561136b5761136a611940565b5b611377848285016112df565b91505092915050565b60006020828403121561139657611395611945565b5b60006113a48482850161130d565b91505092915050565b6000602082840312156113c3576113c2611945565b5b60006113d184828501611322565b91505092915050565b600080604083850312156113f1576113f0611945565b5b60006113ff8582860161130d565b925050602083013567ffffffffffffffff8111156114205761141f611940565b5b61142c858286016112b1565b9150509250929050565b61143f816116f9565b82525050565b61144e8161170b565b82525050565b61145d81611717565b82525050565b600061146e8261169e565b61147881856116a9565b93506114888185602086016117b1565b6114918161194a565b840191505092915050565b6114a581611790565b82525050565b60006114b86000836116ba565b91506114c38261195b565b600082019050919050565b6114d781611734565b82525050565b6114e681611762565b82525050565b6114f58161176c565b82525050565b6115048161177c565b82525050565b6000611515826114ab565b9150819050919050565b60006020820190506115346000830184611436565b92915050565b600060408201905061154f6000830185611436565b61155c6020830184611436565b9392505050565b60006040820190506115786000830185611445565b818103602083015261158a8184611463565b90509392505050565b600060a0820190506115a86000830188611454565b6115b560208301876114fb565b6115c260408301866114ce565b6115cf60608301856114ec565b6115dc60808301846114ec565b9695505050505050565b60006020820190506115fb600083018461149c565b92915050565b600060208201905061161660008301846114dd565b92915050565b6000611626611637565b905061163282826117e4565b919050565b6000604051905090565b600067ffffffffffffffff82111561165c5761165b611902565b5b602082029050602081019050919050565b600067ffffffffffffffff82111561168857611687611902565b5b6116918261194a565b9050602081019050919050565b600081519050919050565b600082825260208201905092915050565b600081905092915050565b60006116d082611762565b91506116db83611762565b9250828210156116ee576116ed611846565b5b828203905092915050565b600061170482611742565b9050919050565b60008115159050919050565b6000819050919050565b600081905061172f8261195e565b919050565b600061ffff82169050919050565b600073ffffffffffffffffffffffffffffffffffffffff82169050919050565b6000819050919050565b600063ffffffff82169050919050565b600067ffffffffffffffff82169050919050565b600061179b82611721565b9050919050565b82818337600083830152505050565b60005b838110156117cf5780820151818401526020810190506117b4565b838111156117de576000848401525b50505050565b6117ed8261194a565b810181811067ffffffffffffffff8211171561180c5761180b611902565b5b80604052505050565b600061182082611762565b915061182b83611762565b92508261183b5761183a611875565b5b828206905092915050565b7f4e487b7100000000000000000000000000000000000000000000000000000000600052601160045260246000fd5b7f4e487b7100000000000000000000000000000000000000000000000000000000600052601260045260246000fd5b7f4e487b7100000000000000000000000000000000000000000000000000000000600052602160045260246000fd5b7f4e487b7100000000000000000000000000000000000000000000000000000000600052603260045260246000fd5b7f4e487b7100000000000000000000000000000000000000000000000000000000600052604160045260246000fd5b600080fd5b600080fd5b600080fd5b600080fd5b600080fd5b6000601f19601f8301169050919050565b50565b6002811061196f5761196e6118a4565b5b50565b61197b81611762565b811461198657600080fd5b5056fea2646970667358221220d3f697a4a34a198478312501f27bcc00721ab4b0346890712cc28f98447a174764736f6c63430008070033",
  "linkReferences": {},
  "deployedLinkReferences": {}
}