{
  "_format": "hh-sol-artifact-1",
  "contractName": "Raffle",
  "sourceName": "contracts/Raffle.sol",
  "abi": [
    {
      "inputs": [
        {
          "internalType": "address",
          "name": "vrfCoordinatorV2",
          "type": "address"
        },
        {
          "internalType": "uint256",
          "name": "entranceFee",
          "type": "uint256"
        },
        {
          "internalType": "bytes32",
          "name": "gasLane",
          "type": "bytes32"
        },
        {
          "internalType": "uint64",
          "name": "subscriptionId",
          "type": "uint64"
        },
        {
          "internalType": "uint32",
          "name": "callbackGasLimit",
          "type": "uint32"
        },
        {
          "internalType": "uint256",
          "name": "interval",
          "type": "uint256"
        }
      ],
      "stateMutability": "nonpayable",
      "type": "constructor"
    },
    {
      "inputs": [
        {
          "internalType": "address",
          "name": "have",
          "type": "address"
        },
        {
          "internalType": "address",
          "name": "want",
          "type": "address"
        }
      ],
      "name": "OnlyCoordinatorCanFulfill",
      "type": "error"
    },
    {
      "inputs": [],
      "name": "Raffle_NotEnoughETHAmount",
      "type": "error"
    },
    {
      "inputs": [],
      "name": "Raffle_UpKeepNotNeeded",
      "type": "error"
    },
    {
      "inputs": [],
      "name": "Raffle__NotOpen",
      "type": "error"
    },
    {
      "inputs": [],
      "name": "Raffle__failed",
      "type": "error"
    },
    {
      "anonymous": false,
      "inputs": [
        {
          "indexed": true,
          "internalType": "address",
          "name": "player",
          "type": "address"
        }
      ],
      "name": "RaffleEnter",
      "type": "event"
    },
    {
      "anonymous": false,
      "inputs": [
        {
          "indexed": true,
          "internalType": "uint256",
          "name": "requestId",
          "type": "uint256"
        }
      ],
      "name": "RequestedRaffleWinner",
      "type": "event"
    },
    {
      "anonymous": false,
      "inputs": [
        {
          "indexed": true,
          "internalType": "address",
          "name": "winner",
          "type": "address"
        }
      ],
      "name": "WinnerPicked",
      "type": "event"
    },
    {
      "inputs": [
        {
          "internalType": "bytes",
          "name": "",
          "type": "bytes"
        }
      ],
      "name": "checkUpkeep",
      "outputs": [
        {
          "internalType": "bool",
          "name": "upKeepNeeded",
          "type": "bool"
        },
        {
          "internalType": "bytes",
          "name": "",
          "type": "bytes"
        }
      ],
      "stateMutability": "view",
      "type": "function"
    },
    {
      "inputs": [],
      "name": "enterRaffle",
      "outputs": [],
      "stateMutability": "payable",
      "type": "function"
    },
    {
      "inputs": [],
      "name": "getEntranceFee",
      "outputs": [
        {
          "internalType": "uint256",
          "name": "",
          "type": "uint256"
        }
      ],
      "stateMutability": "view",
      "type": "function"
    },
    {
      "inputs": [],
      "name": "getInterval",
      "outputs": [
        {
          "internalType": "uint256",
          "name": "",
          "type": "uint256"
        }
      ],
      "stateMutability": "view",
      "type": "function"
    },
    {
      "inputs": [],
      "name": "getNumWords",
      "outputs": [
        {
          "internalType": "uint256",
          "name": "",
          "type": "uint256"
        }
      ],
      "stateMutability": "pure",
      "type": "function"
    },
    {
      "inputs": [],
      "name": "getNumberOfPlayers",
      "outputs": [
        {
          "internalType": "uint256",
          "name": "",
          "type": "uint256"
        }
      ],
      "stateMutability": "view",
      "type": "function"
    },
    {
      "inputs": [
        {
          "internalType": "uint256",
          "name": "index",
          "type": "uint256"
        }
      ],
      "name": "getPlayer",
      "outputs": [
        {
          "internalType": "address",
          "name": "",
          "type": "address"
        }
      ],
      "stateMutability": "view",
      "type": "function"
    },
    {
      "inputs": [],
      "name": "getRaffleState",
      "outputs": [
        {
          "internalType": "enum Raffle.RaffleState",
          "name": "",
          "type": "uint8"
        }
      ],
      "stateMutability": "view",
      "type": "function"
    },
    {
      "inputs": [],
      "name": "getRecentWinner",
      "outputs": [
        {
          "internalType": "address",
          "name": "",
          "type": "address"
        }
      ],
      "stateMutability": "view",
      "type": "function"
    },
    {
      "inputs": [],
      "name": "getRequestConfirmations",
      "outputs": [
        {
          "internalType": "uint256",
          "name": "",
          "type": "uint256"
        }
      ],
      "stateMutability": "pure",
      "type": "function"
    },
    {
      "inputs": [],
      "name": "getlatestTimeStamp",
      "outputs": [
        {
          "internalType": "uint256",
          "name": "",
          "type": "uint256"
        }
      ],
      "stateMutability": "view",
      "type": "function"
    },
    {
      "inputs": [
        {
          "internalType": "bytes",
          "name": "",
          "type": "bytes"
        }
      ],
      "name": "performUpkeep",
      "outputs": [],
      "stateMutability": "nonpayable",
      "type": "function"
    },
    {
      "inputs": [
        {
          "internalType": "uint256",
          "name": "requestId",
          "type": "uint256"
        },
        {
          "internalType": "uint256[]",
          "name": "randomWords",
          "type": "uint256[]"
        }
      ],
      "name": "rawFulfillRandomWords",
      "outputs": [],
      "stateMutability": "nonpayable",
      "type": "function"
    }
  ],
  "bytecode": "0x6101606040523480156200001257600080fd5b5060405162001726380380620017268339818101604052810190620000389190620001ad565b858073ffffffffffffffffffffffffffffffffffffffff1660808173ffffffffffffffffffffffffffffffffffffffff1660601b81525050508460a081815250508573ffffffffffffffffffffffffffffffffffffffff1660c08173ffffffffffffffffffffffffffffffffffffffff1660601b815250508360e081815250508267ffffffffffffffff166101008167ffffffffffffffff1660c01b815250508163ffffffff166101208163ffffffff1660e01b815250506000600360006101000a81548160ff02191690836001811115620001195762000118620002b5565b5b0217905550806101408181525050426002819055505050505050506200036b565b6000815190506200014b81620002e9565b92915050565b600081519050620001628162000303565b92915050565b60008151905062000179816200031d565b92915050565b600081519050620001908162000337565b92915050565b600081519050620001a78162000351565b92915050565b60008060008060008060c08789031215620001cd57620001cc620002e4565b5b6000620001dd89828a016200013a565b9650506020620001f089828a0162000168565b95505060406200020389828a0162000151565b94505060606200021689828a0162000196565b93505060806200022989828a016200017f565b92505060a06200023c89828a0162000168565b9150509295509295509295565b6000620002568262000267565b9050919050565b6000819050919050565b600073ffffffffffffffffffffffffffffffffffffffff82169050919050565b6000819050919050565b600063ffffffff82169050919050565b600067ffffffffffffffff82169050919050565b7f4e487b7100000000000000000000000000000000000000000000000000000000600052602160045260246000fd5b600080fd5b620002f48162000249565b81146200030057600080fd5b50565b6200030e816200025d565b81146200031a57600080fd5b50565b620003288162000287565b81146200033457600080fd5b50565b620003428162000291565b81146200034e57600080fd5b50565b6200035c81620002a1565b81146200036857600080fd5b50565b60805160601c60a05160c05160601c60e0516101005160c01c6101205160e01c6101405161133f620003e7600039600081816107b80152610826015260006106680152600061064501526000610624015260006105e80152600081816102fa01526103f7015260008181610337015261038b015261133f6000f3fe6080604052600436106100c25760003560e01c806353a2c19a1161007f57806391ad27b41161005957806391ad27b414610238578063a357b14614610263578063e55ae4e81461028e578063fd6673f5146102cb576100c2565b806353a2c19a146101a45780635f1b0fd8146101cf5780636e04ff0d146101fa576100c2565b806309bc33a7146100c7578063115cbaf5146100f25780631fe543e31461011d5780632cfcc539146101465780634585e33b14610150578063473f1ddc14610179575b600080fd5b3480156100d357600080fd5b506100dc6102f6565b6040516100e99190610f81565b60405180910390f35b3480156100fe57600080fd5b5061010761031e565b6040516101149190610f66565b60405180910390f35b34801561012957600080fd5b50610144600480360381019061013f9190610d5a565b610335565b005b61014e6103f5565b005b34801561015c57600080fd5b5061017760048036038101906101729190610cb7565b610564565b005b34801561018557600080fd5b5061018e61072f565b60405161019b9190610e9f565b60405180910390f35b3480156101b057600080fd5b506101b9610759565b6040516101c69190610f81565b60405180910390f35b3480156101db57600080fd5b506101e4610768565b6040516101f19190610f81565b60405180910390f35b34801561020657600080fd5b50610221600480360381019061021c9190610cb7565b610775565b60405161022f929190610ee3565b60405180910390f35b34801561024457600080fd5b5061024d610822565b60405161025a9190610f81565b60405180910390f35b34801561026f57600080fd5b5061027861084a565b6040516102859190610f81565b60405180910390f35b34801561029a57600080fd5b506102b560048036038101906102b09190610d00565b610854565b6040516102c29190610e9f565b60405180910390f35b3480156102d757600080fd5b506102e061089b565b6040516102ed9190610f81565b60405180910390f35b60007f0000000000000000000000000000000000000000000000000000000000000000905090565b6000600360009054906101000a900460ff16905090565b7f000000000000000000000000000000000000000000000000000000000000000073ffffffffffffffffffffffffffffffffffffffff163373ffffffffffffffffffffffffffffffffffffffff16146103e757337f00000000000000000000000000000000000000000000000000000000000000006040517f1cf993f40000000000000000000000000000000000000000000000000000000081526004016103de929190610eba565b60405180910390fd5b6103f182826108a7565b5050565b7f000000000000000000000000000000000000000000000000000000000000000034101561044f576040517f2edc6cd300000000000000000000000000000000000000000000000000000000815260040160405180910390fd5b6000600181111561046357610462611224565b5b600360009054906101000a900460ff16600181111561048557610484611224565b5b146104bc576040517f1425571c00000000000000000000000000000000000000000000000000000000815260040160405180910390fd5b6000339080600181540180825580915050600190039060005260206000200160009091909190916101000a81548173ffffffffffffffffffffffffffffffffffffffff021916908373ffffffffffffffffffffffffffffffffffffffff1602179055503373ffffffffffffffffffffffffffffffffffffffff167f0805e1d667bddb8a95f0f09880cf94f403fb596ce79928d9f29b74203ba284d460405160405180910390a2565b600061057e60405180602001604052806000815250610775565b50905080156105b9576040517f4876790b00000000000000000000000000000000000000000000000000000000815260040160405180910390fd5b6001600360006101000a81548160ff021916908360018111156105df576105de611224565b5b021790555060007f000000000000000000000000000000000000000000000000000000000000000073ffffffffffffffffffffffffffffffffffffffff16635d3b1d307f00000000000000000000000000000000000000000000000000000000000000007f000000000000000000000000000000000000000000000000000000000000000060037f000000000000000000000000000000000000000000000000000000000000000060016040518663ffffffff1660e01b81526004016106a9959493929190610f13565b602060405180830381600087803b1580156106c357600080fd5b505af11580156106d7573d6000803e3d6000fd5b505050506040513d601f19601f820116820180604052508101906106fb9190610d2d565b9050807fcd6e45c8998311cab7e9d4385596cac867e20a0587194b954fa3a731c93ce78b60405160405180910390a2505050565b6000600160009054906101000a900473ffffffffffffffffffffffffffffffffffffffff16905090565b6000600163ffffffff16905090565b6000600361ffff16905090565b600060606000600360009054906101000a900460ff16600181111561079d5761079c611224565b5b600060018111156107b1576107b0611224565b5b14905060007f0000000000000000000000000000000000000000000000000000000000000000600254426107e59190611045565b119050600080600080549050119050600080471190508380156108055750825b801561080e5750815b80156108175750805b955050505050915091565b60007f0000000000000000000000000000000000000000000000000000000000000000905090565b6000600254905090565b600080828154811061086957610868611253565b5b9060005260206000200160009054906101000a900473ffffffffffffffffffffffffffffffffffffffff169050919050565b60008080549050905090565b60008080549050826000815181106108c2576108c1611253565b5b60200260200101516108d49190611195565b905060008082815481106108eb576108ea611253565b5b9060005260206000200160009054906101000a900473ffffffffffffffffffffffffffffffffffffffff16905080600160006101000a81548173ffffffffffffffffffffffffffffffffffffffff021916908373ffffffffffffffffffffffffffffffffffffffff1602179055506000600360006101000a81548160ff0219169083600181111561097f5761097e611224565b5b0217905550600067ffffffffffffffff81111561099f5761099e611282565b5b6040519080825280602002602001820160405280156109cd5781602001602082028036833780820191505090505b50600090805190602001906109e3929190610ad8565b504260028190555060008173ffffffffffffffffffffffffffffffffffffffff1647604051610a1190610e8a565b60006040518083038185875af1925050503d8060008114610a4e576040519150601f19603f3d011682016040523d82523d6000602084013e610a53565b606091505b5050905080610a8e576040517f989c15c000000000000000000000000000000000000000000000000000000000815260040160405180910390fd5b8173ffffffffffffffffffffffffffffffffffffffff167f5b690ec4a06fe979403046eaeea5b3ce38524683c3001f662c8b5a829632f7df60405160405180910390a25050505050565b828054828255906000526020600020908101928215610b51579160200282015b82811115610b505782518260006101000a81548173ffffffffffffffffffffffffffffffffffffffff021916908373ffffffffffffffffffffffffffffffffffffffff16021790555091602001919060010190610af8565b5b509050610b5e9190610b62565b5090565b5b80821115610b7b576000816000905550600101610b63565b5090565b6000610b92610b8d84610fc1565b610f9c565b90508083825260208201905082856020860282011115610bb557610bb46112b6565b5b60005b85811015610be55781610bcb8882610c8d565b845260208401935060208301925050600181019050610bb8565b5050509392505050565b6000610c02610bfd84610fed565b610f9c565b905082815260208101848484011115610c1e57610c1d6112bb565b5b610c29848285611122565b509392505050565b600082601f830112610c4657610c456112b1565b5b8135610c56848260208601610b7f565b91505092915050565b600082601f830112610c7457610c736112b1565b5b8135610c84848260208601610bef565b91505092915050565b600081359050610c9c816112f2565b92915050565b600081519050610cb1816112f2565b92915050565b600060208284031215610ccd57610ccc6112c5565b5b600082013567ffffffffffffffff811115610ceb57610cea6112c0565b5b610cf784828501610c5f565b91505092915050565b600060208284031215610d1657610d156112c5565b5b6000610d2484828501610c8d565b91505092915050565b600060208284031215610d4357610d426112c5565b5b6000610d5184828501610ca2565b91505092915050565b60008060408385031215610d7157610d706112c5565b5b6000610d7f85828601610c8d565b925050602083013567ffffffffffffffff811115610da057610d9f6112c0565b5b610dac85828601610c31565b9150509250929050565b610dbf81611079565b82525050565b610dce8161108b565b82525050565b610ddd81611097565b82525050565b6000610dee8261101e565b610df88185611029565b9350610e08818560208601611131565b610e11816112ca565b840191505092915050565b610e2581611110565b82525050565b6000610e3860008361103a565b9150610e43826112db565b600082019050919050565b610e57816110b4565b82525050565b610e66816110e2565b82525050565b610e75816110ec565b82525050565b610e84816110fc565b82525050565b6000610e9582610e2b565b9150819050919050565b6000602082019050610eb46000830184610db6565b92915050565b6000604082019050610ecf6000830185610db6565b610edc6020830184610db6565b9392505050565b6000604082019050610ef86000830185610dc5565b8181036020830152610f0a8184610de3565b90509392505050565b600060a082019050610f286000830188610dd4565b610f356020830187610e7b565b610f426040830186610e4e565b610f4f6060830185610e6c565b610f5c6080830184610e6c565b9695505050505050565b6000602082019050610f7b6000830184610e1c565b92915050565b6000602082019050610f966000830184610e5d565b92915050565b6000610fa6610fb7565b9050610fb28282611164565b919050565b6000604051905090565b600067ffffffffffffffff821115610fdc57610fdb611282565b5b602082029050602081019050919050565b600067ffffffffffffffff82111561100857611007611282565b5b611011826112ca565b9050602081019050919050565b600081519050919050565b600082825260208201905092915050565b600081905092915050565b6000611050826110e2565b915061105b836110e2565b92508282101561106e5761106d6111c6565b5b828203905092915050565b6000611084826110c2565b9050919050565b60008115159050919050565b6000819050919050565b60008190506110af826112de565b919050565b600061ffff82169050919050565b600073ffffffffffffffffffffffffffffffffffffffff82169050919050565b6000819050919050565b600063ffffffff82169050919050565b600067ffffffffffffffff82169050919050565b600061111b826110a1565b9050919050565b82818337600083830152505050565b60005b8381101561114f578082015181840152602081019050611134565b8381111561115e576000848401525b50505050565b61116d826112ca565b810181811067ffffffffffffffff8211171561118c5761118b611282565b5b80604052505050565b60006111a0826110e2565b91506111ab836110e2565b9250826111bb576111ba6111f5565b5b828206905092915050565b7f4e487b7100000000000000000000000000000000000000000000000000000000600052601160045260246000fd5b7f4e487b7100000000000000000000000000000000000000000000000000000000600052601260045260246000fd5b7f4e487b7100000000000000000000000000000000000000000000000000000000600052602160045260246000fd5b7f4e487b7100000000000000000000000000000000000000000000000000000000600052603260045260246000fd5b7f4e487b7100000000000000000000000000000000000000000000000000000000600052604160045260246000fd5b600080fd5b600080fd5b600080fd5b600080fd5b600080fd5b6000601f19601f8301169050919050565b50565b600281106112ef576112ee611224565b5b50565b6112fb816110e2565b811461130657600080fd5b5056fea26469706673582212209ed903e61482724779569d3c81e16210a48ad0ed05f9c23a9ce20ea41d053bc764736f6c63430008070033",
  "linkReferences": {},
  "deployedLinkReferences": {}
}