{
  "_format": "hh-sol-artifact-1",
  "contractName": "Raffle",
  "sourceName": "contracts/Raffle.sol",
  "abi": [
    {
      "inputs": [
        {
          "internalType": "address",
          "name": "vrfCoordinatorV2",
          "type": "address"
        },
        {
          "internalType": "uint256",
          "name": "entranceFee",
          "type": "uint256"
        },
        {
          "internalType": "bytes32",
          "name": "gasLane",
          "type": "bytes32"
        },
        {
          "internalType": "uint64",
          "name": "subscriptionId",
          "type": "uint64"
        },
        {
          "internalType": "uint32",
          "name": "callbackGasLimit",
          "type": "uint32"
        },
        {
          "internalType": "uint256",
          "name": "interval",
          "type": "uint256"
        }
      ],
      "stateMutability": "nonpayable",
      "type": "constructor"
    },
    {
      "inputs": [
        {
          "internalType": "address",
          "name": "have",
          "type": "address"
        },
        {
          "internalType": "address",
          "name": "want",
          "type": "address"
        }
      ],
      "name": "OnlyCoordinatorCanFulfill",
      "type": "error"
    },
    {
      "inputs": [],
      "name": "Raffle_NotEnoughETHAmount",
      "type": "error"
    },
    {
      "inputs": [],
      "name": "Raffle_UpKeepNotNeeded",
      "type": "error"
    },
    {
      "inputs": [],
      "name": "Raffle__NotOpen",
      "type": "error"
    },
    {
      "inputs": [],
      "name": "Raffle__failed",
      "type": "error"
    },
    {
      "anonymous": false,
      "inputs": [
        {
          "indexed": true,
          "internalType": "address",
          "name": "player",
          "type": "address"
        }
      ],
      "name": "RaffleEnter",
      "type": "event"
    },
    {
      "anonymous": false,
      "inputs": [
        {
          "indexed": true,
          "internalType": "uint256",
          "name": "requestId",
          "type": "uint256"
        }
      ],
      "name": "RequestedRaffleWinner",
      "type": "event"
    },
    {
      "anonymous": false,
      "inputs": [
        {
          "indexed": true,
          "internalType": "address",
          "name": "winner",
          "type": "address"
        }
      ],
      "name": "WinnerPicked",
      "type": "event"
    },
    {
      "inputs": [
        {
          "internalType": "bytes",
          "name": "",
          "type": "bytes"
        }
      ],
      "name": "checkUpkeep",
      "outputs": [
        {
          "internalType": "bool",
          "name": "upKeepNeeded",
          "type": "bool"
        },
        {
          "internalType": "bytes",
          "name": "",
          "type": "bytes"
        }
      ],
      "stateMutability": "view",
      "type": "function"
    },
    {
      "inputs": [],
      "name": "enterRaffle",
      "outputs": [],
      "stateMutability": "payable",
      "type": "function"
    },
    {
      "inputs": [],
      "name": "getEntranceFee",
      "outputs": [
        {
          "internalType": "uint256",
          "name": "",
          "type": "uint256"
        }
      ],
      "stateMutability": "view",
      "type": "function"
    },
    {
      "inputs": [],
      "name": "getNumWords",
      "outputs": [
        {
          "internalType": "uint256",
          "name": "",
          "type": "uint256"
        }
      ],
      "stateMutability": "pure",
      "type": "function"
    },
    {
      "inputs": [],
      "name": "getNumberOfPlayers",
      "outputs": [
        {
          "internalType": "uint256",
          "name": "",
          "type": "uint256"
        }
      ],
      "stateMutability": "view",
      "type": "function"
    },
    {
      "inputs": [
        {
          "internalType": "uint256",
          "name": "index",
          "type": "uint256"
        }
      ],
      "name": "getPlayer",
      "outputs": [
        {
          "internalType": "address",
          "name": "",
          "type": "address"
        }
      ],
      "stateMutability": "view",
      "type": "function"
    },
    {
      "inputs": [],
      "name": "getRaffleState",
      "outputs": [
        {
          "internalType": "enum Raffle.RaffleState",
          "name": "",
          "type": "uint8"
        }
      ],
      "stateMutability": "view",
      "type": "function"
    },
    {
      "inputs": [],
      "name": "getRecentWinner",
      "outputs": [
        {
          "internalType": "address",
          "name": "",
          "type": "address"
        }
      ],
      "stateMutability": "view",
      "type": "function"
    },
    {
      "inputs": [],
      "name": "getRequestConfirmations",
      "outputs": [
        {
          "internalType": "uint256",
          "name": "",
          "type": "uint256"
        }
      ],
      "stateMutability": "pure",
      "type": "function"
    },
    {
      "inputs": [],
      "name": "getlatestTimeStamp",
      "outputs": [
        {
          "internalType": "uint256",
          "name": "",
          "type": "uint256"
        }
      ],
      "stateMutability": "view",
      "type": "function"
    },
    {
      "inputs": [
        {
          "internalType": "bytes",
          "name": "",
          "type": "bytes"
        }
      ],
      "name": "performUpkeep",
      "outputs": [],
      "stateMutability": "nonpayable",
      "type": "function"
    },
    {
      "inputs": [
        {
          "internalType": "uint256",
          "name": "requestId",
          "type": "uint256"
        },
        {
          "internalType": "uint256[]",
          "name": "randomWords",
          "type": "uint256[]"
        }
      ],
      "name": "rawFulfillRandomWords",
      "outputs": [],
      "stateMutability": "nonpayable",
      "type": "function"
    }
  ],
  "bytecode": "0x6101606040523480156200001257600080fd5b50604051620016b1380380620016b18339818101604052810190620000389190620001ad565b858073ffffffffffffffffffffffffffffffffffffffff1660808173ffffffffffffffffffffffffffffffffffffffff1660601b81525050508460a081815250508573ffffffffffffffffffffffffffffffffffffffff1660c08173ffffffffffffffffffffffffffffffffffffffff1660601b815250508360e081815250508267ffffffffffffffff166101008167ffffffffffffffff1660c01b815250508163ffffffff166101208163ffffffff1660e01b815250506000600360006101000a81548160ff02191690836001811115620001195762000118620002b5565b5b0217905550806101408181525050426002819055505050505050506200036b565b6000815190506200014b81620002e9565b92915050565b600081519050620001628162000303565b92915050565b60008151905062000179816200031d565b92915050565b600081519050620001908162000337565b92915050565b600081519050620001a78162000351565b92915050565b60008060008060008060c08789031215620001cd57620001cc620002e4565b5b6000620001dd89828a016200013a565b9650506020620001f089828a0162000168565b95505060406200020389828a0162000151565b94505060606200021689828a0162000196565b93505060806200022989828a016200017f565b92505060a06200023c89828a0162000168565b9150509295509295509295565b6000620002568262000267565b9050919050565b6000819050919050565b600073ffffffffffffffffffffffffffffffffffffffff82169050919050565b6000819050919050565b600063ffffffff82169050919050565b600067ffffffffffffffff82169050919050565b7f4e487b7100000000000000000000000000000000000000000000000000000000600052602160045260246000fd5b600080fd5b620002f48162000249565b81146200030057600080fd5b50565b6200030e816200025d565b81146200031a57600080fd5b50565b620003288162000287565b81146200033457600080fd5b50565b620003428162000291565b81146200034e57600080fd5b50565b6200035c81620002a1565b81146200036857600080fd5b50565b60805160601c60a05160c05160601c60e0516101005160c01c6101205160e01c610140516112d1620003e0600039600061077201526000610622015260006105ff015260006105de015260006105a20152600081816102b401526103b10152600081816102f1015261034501526112d16000f3fe6080604052600436106100a75760003560e01c806353a2c19a1161006457806353a2c19a146101895780635f1b0fd8146101b45780636e04ff0d146101df578063a357b1461461021d578063e55ae4e814610248578063fd6673f514610285576100a7565b806309bc33a7146100ac578063115cbaf5146100d75780631fe543e3146101025780632cfcc5391461012b5780634585e33b14610135578063473f1ddc1461015e575b600080fd5b3480156100b857600080fd5b506100c16102b0565b6040516100ce9190610f13565b60405180910390f35b3480156100e357600080fd5b506100ec6102d8565b6040516100f99190610ef8565b60405180910390f35b34801561010e57600080fd5b5061012960048036038101906101249190610cec565b6102ef565b005b6101336103af565b005b34801561014157600080fd5b5061015c60048036038101906101579190610c49565b61051e565b005b34801561016a57600080fd5b506101736106e9565b6040516101809190610e31565b60405180910390f35b34801561019557600080fd5b5061019e610713565b6040516101ab9190610f13565b60405180910390f35b3480156101c057600080fd5b506101c9610722565b6040516101d69190610f13565b60405180910390f35b3480156101eb57600080fd5b5061020660048036038101906102019190610c49565b61072f565b604051610214929190610e75565b60405180910390f35b34801561022957600080fd5b506102326107dc565b60405161023f9190610f13565b60405180910390f35b34801561025457600080fd5b5061026f600480360381019061026a9190610c92565b6107e6565b60405161027c9190610e31565b60405180910390f35b34801561029157600080fd5b5061029a61082d565b6040516102a79190610f13565b60405180910390f35b60007f0000000000000000000000000000000000000000000000000000000000000000905090565b6000600360009054906101000a900460ff16905090565b7f000000000000000000000000000000000000000000000000000000000000000073ffffffffffffffffffffffffffffffffffffffff163373ffffffffffffffffffffffffffffffffffffffff16146103a157337f00000000000000000000000000000000000000000000000000000000000000006040517f1cf993f4000000000000000000000000000000000000000000000000000000008152600401610398929190610e4c565b60405180910390fd5b6103ab8282610839565b5050565b7f0000000000000000000000000000000000000000000000000000000000000000341015610409576040517f2edc6cd300000000000000000000000000000000000000000000000000000000815260040160405180910390fd5b6000600181111561041d5761041c6111b6565b5b600360009054906101000a900460ff16600181111561043f5761043e6111b6565b5b14610476576040517f1425571c00000000000000000000000000000000000000000000000000000000815260040160405180910390fd5b6000339080600181540180825580915050600190039060005260206000200160009091909190916101000a81548173ffffffffffffffffffffffffffffffffffffffff021916908373ffffffffffffffffffffffffffffffffffffffff1602179055503373ffffffffffffffffffffffffffffffffffffffff167f0805e1d667bddb8a95f0f09880cf94f403fb596ce79928d9f29b74203ba284d460405160405180910390a2565b60006105386040518060200160405280600081525061072f565b5090508015610573576040517f4876790b00000000000000000000000000000000000000000000000000000000815260040160405180910390fd5b6001600360006101000a81548160ff02191690836001811115610599576105986111b6565b5b021790555060007f000000000000000000000000000000000000000000000000000000000000000073ffffffffffffffffffffffffffffffffffffffff16635d3b1d307f00000000000000000000000000000000000000000000000000000000000000007f000000000000000000000000000000000000000000000000000000000000000060037f000000000000000000000000000000000000000000000000000000000000000060016040518663ffffffff1660e01b8152600401610663959493929190610ea5565b602060405180830381600087803b15801561067d57600080fd5b505af1158015610691573d6000803e3d6000fd5b505050506040513d601f19601f820116820180604052508101906106b59190610cbf565b9050807fcd6e45c8998311cab7e9d4385596cac867e20a0587194b954fa3a731c93ce78b60405160405180910390a2505050565b6000600160009054906101000a900473ffffffffffffffffffffffffffffffffffffffff16905090565b6000600163ffffffff16905090565b6000600361ffff16905090565b600060606000600360009054906101000a900460ff166001811115610757576107566111b6565b5b6000600181111561076b5761076a6111b6565b5b14905060007f00000000000000000000000000000000000000000000000000000000000000006002544261079f9190610fd7565b119050600080600080549050119050600080471190508380156107bf5750825b80156107c85750815b80156107d15750805b955050505050915091565b6000600254905090565b60008082815481106107fb576107fa6111e5565b5b9060005260206000200160009054906101000a900473ffffffffffffffffffffffffffffffffffffffff169050919050565b60008080549050905090565b6000808054905082600081518110610854576108536111e5565b5b60200260200101516108669190611127565b9050600080828154811061087d5761087c6111e5565b5b9060005260206000200160009054906101000a900473ffffffffffffffffffffffffffffffffffffffff16905080600160006101000a81548173ffffffffffffffffffffffffffffffffffffffff021916908373ffffffffffffffffffffffffffffffffffffffff1602179055506000600360006101000a81548160ff02191690836001811115610911576109106111b6565b5b0217905550600067ffffffffffffffff81111561093157610930611214565b5b60405190808252806020026020018201604052801561095f5781602001602082028036833780820191505090505b5060009080519060200190610975929190610a6a565b504260028190555060008173ffffffffffffffffffffffffffffffffffffffff16476040516109a390610e1c565b60006040518083038185875af1925050503d80600081146109e0576040519150601f19603f3d011682016040523d82523d6000602084013e6109e5565b606091505b5050905080610a20576040517f989c15c000000000000000000000000000000000000000000000000000000000815260040160405180910390fd5b8173ffffffffffffffffffffffffffffffffffffffff167f5b690ec4a06fe979403046eaeea5b3ce38524683c3001f662c8b5a829632f7df60405160405180910390a25050505050565b828054828255906000526020600020908101928215610ae3579160200282015b82811115610ae25782518260006101000a81548173ffffffffffffffffffffffffffffffffffffffff021916908373ffffffffffffffffffffffffffffffffffffffff16021790555091602001919060010190610a8a565b5b509050610af09190610af4565b5090565b5b80821115610b0d576000816000905550600101610af5565b5090565b6000610b24610b1f84610f53565b610f2e565b90508083825260208201905082856020860282011115610b4757610b46611248565b5b60005b85811015610b775781610b5d8882610c1f565b845260208401935060208301925050600181019050610b4a565b5050509392505050565b6000610b94610b8f84610f7f565b610f2e565b905082815260208101848484011115610bb057610baf61124d565b5b610bbb8482856110b4565b509392505050565b600082601f830112610bd857610bd7611243565b5b8135610be8848260208601610b11565b91505092915050565b600082601f830112610c0657610c05611243565b5b8135610c16848260208601610b81565b91505092915050565b600081359050610c2e81611284565b92915050565b600081519050610c4381611284565b92915050565b600060208284031215610c5f57610c5e611257565b5b600082013567ffffffffffffffff811115610c7d57610c7c611252565b5b610c8984828501610bf1565b91505092915050565b600060208284031215610ca857610ca7611257565b5b6000610cb684828501610c1f565b91505092915050565b600060208284031215610cd557610cd4611257565b5b6000610ce384828501610c34565b91505092915050565b60008060408385031215610d0357610d02611257565b5b6000610d1185828601610c1f565b925050602083013567ffffffffffffffff811115610d3257610d31611252565b5b610d3e85828601610bc3565b9150509250929050565b610d518161100b565b82525050565b610d608161101d565b82525050565b610d6f81611029565b82525050565b6000610d8082610fb0565b610d8a8185610fbb565b9350610d9a8185602086016110c3565b610da38161125c565b840191505092915050565b610db7816110a2565b82525050565b6000610dca600083610fcc565b9150610dd58261126d565b600082019050919050565b610de981611046565b82525050565b610df881611074565b82525050565b610e078161107e565b82525050565b610e168161108e565b82525050565b6000610e2782610dbd565b9150819050919050565b6000602082019050610e466000830184610d48565b92915050565b6000604082019050610e616000830185610d48565b610e6e6020830184610d48565b9392505050565b6000604082019050610e8a6000830185610d57565b8181036020830152610e9c8184610d75565b90509392505050565b600060a082019050610eba6000830188610d66565b610ec76020830187610e0d565b610ed46040830186610de0565b610ee16060830185610dfe565b610eee6080830184610dfe565b9695505050505050565b6000602082019050610f0d6000830184610dae565b92915050565b6000602082019050610f286000830184610def565b92915050565b6000610f38610f49565b9050610f4482826110f6565b919050565b6000604051905090565b600067ffffffffffffffff821115610f6e57610f6d611214565b5b602082029050602081019050919050565b600067ffffffffffffffff821115610f9a57610f99611214565b5b610fa38261125c565b9050602081019050919050565b600081519050919050565b600082825260208201905092915050565b600081905092915050565b6000610fe282611074565b9150610fed83611074565b92508282101561100057610fff611158565b5b828203905092915050565b600061101682611054565b9050919050565b60008115159050919050565b6000819050919050565b600081905061104182611270565b919050565b600061ffff82169050919050565b600073ffffffffffffffffffffffffffffffffffffffff82169050919050565b6000819050919050565b600063ffffffff82169050919050565b600067ffffffffffffffff82169050919050565b60006110ad82611033565b9050919050565b82818337600083830152505050565b60005b838110156110e15780820151818401526020810190506110c6565b838111156110f0576000848401525b50505050565b6110ff8261125c565b810181811067ffffffffffffffff8211171561111e5761111d611214565b5b80604052505050565b600061113282611074565b915061113d83611074565b92508261114d5761114c611187565b5b828206905092915050565b7f4e487b7100000000000000000000000000000000000000000000000000000000600052601160045260246000fd5b7f4e487b7100000000000000000000000000000000000000000000000000000000600052601260045260246000fd5b7f4e487b7100000000000000000000000000000000000000000000000000000000600052602160045260246000fd5b7f4e487b7100000000000000000000000000000000000000000000000000000000600052603260045260246000fd5b7f4e487b7100000000000000000000000000000000000000000000000000000000600052604160045260246000fd5b600080fd5b600080fd5b600080fd5b600080fd5b600080fd5b6000601f19601f8301169050919050565b50565b60028110611281576112806111b6565b5b50565b61128d81611074565b811461129857600080fd5b5056fea264697066735822122000a562b466a28a26a919d3f9563a8e0cd9d18a94cad2e75ede5b08824b7c3da064736f6c63430008070033",
  "linkReferences": {},
  "deployedLinkReferences": {}
}